:1000030008660103000000010000026100000163B3
:0C0013000002700000017C010278000077
:100264001207067FE87E031206DF1206797B00126E
:1002740005448E768F7785776CE576F56D7B007A0D
:100284000079667D087C001205EEC2901207061202
:1002940006308F758E748D738C721201048F6FE526
:1002A40063B401E8E4F561F562F563FB1205448E7D
:1002B400768F77EFB56CD5E576B56DD0E568757E4C
:1002C40000F57DE569427EE56A757B00F57AE56BAC
:1002D400427BE56714602B24FE601A24FE70ADE5B2
:1002E4006A7C00B4FF047D0080027D01AF7EAE7D98
:1002F4001204C08097AD7BAC7AAF7EAE7D1203143E
:10030400808AAD7BAC7AAF7EAE7D12043802029057
:0A05EE008B5A8A5B895C8C5D8D5E80
:1005F800E4F55FF560F55FF560C3E560955EE55D80
:100608006480F8E55F648098501DAB5AAA5BA95CCA
:10061800856082855F8312019EFF1207130560E5DE
:070628006070D6055F80D26F
:01062F0022A8
:030023000205A92A
:1005A900C0E0C0D075D000C000309832C3E5629475
:1005B90008E56164809480502574662562F8A699DF
:1005C9000562E56270020561C39408E5616480947F
:1005D900804009756301756100756200C298D00099
:0505E900D0D0D0E0328B
:060544007A0079667D06D5
:08054A008B5A8A5B895C8D5D10
:1005520074FFFFFEAD5D155DED604BAB5A055CE5CA
:100562005CAA5B7002055B14F91201856207E4F56F
:100572005EF55FC3E55F9408E55E6480948050D4C5
:10058200EF30E011EEC313FEEF13FFEE64A0FEEFB7
:100592006401FF8007EEC313FEEF13FF055FE55F03
:0605A20070D1055E80CD62
:0105A8002230
:1004C000EE7074EFB40900506E9004D0F8282873D1
:1004D0000204EB0204F30204FB02050302050B0213
:1004E000051302051B02052302052BEC4D24FF9288
:1004F000A08044EC4D24FF92A1803CEC4D24FF925F
:10050000A28034EC4D24FF92A3802CEC4D24FF926A
:10051000A48024EC4D24FF92A5801CEC4D24FF9276
:10052000A68014EC4D24FF92A7800CED64014C7062
:1005300003C38001D392907B007A0079667D087CAA
:04054000000205EEC2
:080438008E088F09AB05AA0430
:100440007C007D08AF03AE021201CBD3ED9400EC2B
:10045000648094807E0040047F0180027F008E8350
:100460008F82AE02AF037C007D081201CBEF2582A4
:10047000FF750A00750B04857C0C750D018F0EE568
:10048000097009E5087005E5A0F4F50F7B007A0016
:10049000790CAD0B12054A8E768F77050BE50B7044
:1004A00002050A14240CF8A607E576FF740C250B48
:1004B000F8A6077B007A00790CAD0BAC0A0205EEBA
:10031400755800755903857C08750903ED25E0F5CA
:100324000AE4F578F5798E788F79ED25E0FFEC33E2
:10033400FEC3E5799FEE6480F8E578648098502DDB
:10034400C3E5799402E578648094805020AF797491
:100354006E2FF8E6FE740B2FF8A6060559E55970C2
:100364000205580579E57970C1057880BD7B007A6E
:10037400007908AD5912054A8E648F650559E5590F
:1003840070020558142408F8A607E564FF0559E52A
:100394005970020558142408F8A6077B007A0079DE
:0803A40008AD59AC580205EE4A
:1006DF00EF1FAC0670011E4C600A7D027CEFDCFE42
:0406EF00DDFC80ECC2
:0106F30022E4
:1006790075985043878053890F438920758BF4758A
:0B0689008DF4C2ABD28ED2AFD2AC22F7
:080713008F993099FDC2992273
:0D0706001206947FCC1206AE7F440206AEB0
:100630001206947FCC1206AE7FBE1206AE12065C86
:100640008F0812065CEFFEE508FFFDAC06EC120019
:0B065000CBE4FBFA798078411200290E
:01065B00227C
:10069400D2B7C2B77FF7DFFED2B77F20DFFEA2B7A3
:0906A400E433FE7FF7DFFEAF0630
:0106AD00222A
:1006F400C2B77E04DEFEEF24FF92B77E18DEFED280
:01070400B73D
:0107050022D1
:1006C700C2B77F02DFFED2B77F02DFFEA2B7E433F5
:0706D700FE7F18DFFEAF06F5
:0106DE0022F9
:0206AE00AD0796
:1006B000E4FC7401A804088002C333D8FC5DFF1277
:0606C00006F40CBC08EC7E
:0106C6002211
:10065C00E4FDFC1206C7EF600D7401A804088002CB
:0C066C00C333D8FC42050CBC08E9AF0504
:01067800225F
:1000260002017AEC5D046005E85904700302017070
:1000360012013B580460F6EC4860F2EC7004FDFED9
:10004600FF22C860DB2481C85009C39860025006AD
:100056000201779850CAF582E9294B4A7005AB82AE
:1000660002016675F0007C1A7880C3EF9BEE9AED6C
:1000760099400DC3EF9BFFEE9AFEED99FDE842F025
:10008600DC23ACF0D0E0FFD0E0FED0E0FDAB822078
:10009600E7101BEB60BAEC2CFCEF33FFEE33FEED02
:1000A60033FD020152E803F830E705C0F075F000B1
:1000B600EF2FFFEE33FEED33FD40B830E7C280AAE6
:1000C60075F020800E75F010800575F0087D007EB5
:1000D600007F003392D530D503120201EC33401075
:1000E600EF33FFEE33FEED33FDEC33FCD5F0ED22BE
:0E00F600E5F0247EA2D513CC92E7CDCEFF22FA
:10010400EDD2E7CD33EC3392D524814006E4FFFEF3
:10011400FDFC22FCE4CFCECDCC24E0501174FF8052
:10012400EDC3CC13CCCD13CDCE13CECF13CF0470EF
:07013400F030D5DE020201EC
:10013B00E9D2E7C933E833F892D5EDD2E7CD33EC0A
:07014B0033FC5002B2D52283
:10015200EC30E7100FBF000C0EBE00080DBD00040E
:100162000BEB6014A2D5EB13FCED92E7FD2274FFBA
:10017200FCFDFEFF22E480F8A2D574FF13FC7D8013
:03018200E480EF27
:030000000203AC4C
:0C03AC00787FE4F6D8FD75817E0203F333
:10018500BB010689828A83E0225002E722BBFE0278
:09019500E32289828A83E49322AB
:10019E00BB010CE58229F582E5833AF583E0225016
:1001AE0006E92582F8E622BBFE06E92582F8E22260
:0D01BE00E58229F582E5833AF583E493227A
:1001CB00C2D5EC30E709B2D5E4C39DFDE49CFCEE4F
:1001DB0030E715B2D5E4C39FFFE49EFE12020FC3B6
:1001EB00E49DFDE49CFC800312020F30D507C3E4B1
:0601FB009FFFE49EFE22BE
:0E020100C3E49FFFE49EFEE49DFDE49CFC220E
:1003B800020264E493A3F8E493A34003F68001F2F5
:1003C80008DFF48029E493A3F85407240CC8C33346
:1003D800C4540F4420C8834004F456800146F6DF15
:1003E800E4800B0102040810204080900003E47EA2
:1003F800019360BCA3FF543F30E509541FFEE4930A
:10040800A360010ECF54C025E060A840B8E493A3D0
:10041800FAE493A3F8E493A3C8C582C8CAC583CAFB
:10042800F0A3C8C582C8CAC583CADFE9DEE780BEB3
:01001F0000E0
:10020F00BC000BBE0029EF8DF084FFADF022E4CCD3
:10021F00F875F008EF2FFFEE33FEEC33FCEE9DEC9C
:10022F00984005FCEE9DFE0FD5F0E9E4CEFD22EDE2
:10023F00F8F5F0EE8420D21CFEADF075F008EF2F2C
:10024F00FFED33FD4007985006D5F0F222C398FD1D
:05025F000FD5F0EA22BA
:00000001FF
