:1000030008660103000000010000026100000163B3
:0C0013000002700000017C010278000077
:1001D9001205CF7FE87E031205A81205427B0012A3
:1001E900040D8E768F7785776CE576F56D7B007AD1
:1001F9000079667D087C001204B71205CF1204F954
:100209008F758E748D738C721201048F6FE563B4D0
:1002190001E8E4F561F562F563FB12040D8E768F52
:1002290077EFB56CD5E576B56DD0E568757E00F5E7
:100239007DE569427EE56A757B00F57AE56B427B6F
:10024900E56724FD601A24FE70B0E56A7C00B4FFFE
:10025900047D0080027D01AF7EAE7D12039A809AF3
:0D026900AD7BAC7AAF7EAE7D120276808D4B
:0A04B7008B5A8A5B895C8C5D8D5EB8
:1004C100E4F55FF560F55FF560C3E560955EE55DB8
:1004D1006480F8E55F648098501DAB5AAA5BA95C03
:1004E100856082855F8312019EFF1205DC0560E550
:0704F1006070D6055F80D2A8
:0104F80022E1
:0300230002047262
:10047200C0E0C0D075D000C000309832C3E56294AD
:1004820008E56164809480502574662562F8A69917
:100492000562E56270020561C39408E561648094B7
:1004A200804009756301756100756200C298D000D1
:0504B200D0D0D0E032C3
:06040D007A0079667D060D
:080413008B5A8A5B895C8D5D48
:10041B0074FFFFFEAD5D155DED604BAB5A055CE502
:10042B005CAA5B7002055B14F91201856207E4F5A7
:10043B005EF55FC3E55F9408E55E6480948050D4FD
:10044B00EF30E011EEC313FEEF13FFEE64A0FEEFEF
:10045B006401FF8007EEC313FEEF13FF055FE55F3B
:06046B0070D1055E80CD9A
:010471002268
:10039A00EE7063EFB40800505D9003AAF828287342
:1003AA000203C20203CA0203D20203DA0203E2020E
:1003BA0003EA0203F20203FAEC4D24FF92A080360C
:1003CA00EC4D24FF92A1802EEC4D24FF92A28026B0
:1003DA00EC4D24FF92A3801EEC4D24FF92A48016BC
:1003EA00EC4D24FF92A5800EEC4D24FF92A68006C8
:1003FA00EC4D24FF92A77B007A0079667D087C0089
:03040A000204B732
:10027600755800755903857C08750903ED25E0F569
:100286000AE4F578F5798E788F79ED25E0FFEC3381
:10029600FEC3E5799FEE6480F8E578648098502D7A
:1002A600C3E5799402E578648094805020AF797430
:1002B6006E2FF8E6FE740B2FF8A6060559E5597061
:1002C6000205580579E57970C1057880BD7B007A0D
:1002D600007908AD591204138E648F650559E559E6
:1002E60070020558142408F8A607E564FF0559E5C9
:1002F6005970020558142408F8A6077B007A00797D
:0803060008AD59AC580204B720
:1005A800EF1FAC0670011E4C600A7D027CEFDCFE7A
:0405B800DDFC80ECFA
:0105BC00221C
:1005420075985043878053890F438920758BF475C2
:0B0552008DF4C2ABD28ED2AFD2AC222F
:0805DC008F993099FDC29922AC
:0D05CF0012055D7FCC1205777F4402057791
:1004F90012055D7FCC1205777FBE1205771205259F
:100509008F08120525EFFEE508FFFDAC06EC120089
:0B051900CBE4FBFA7980784112002946
:0105240022B4
:10055D00D2B7C2B77FF7DFFED2B77F20DFFEA2B7DB
:09056D00E433FE7FF7DFFEAF0668
:010576002262
:1005BD00C2B77E04DEFEEF24FF92B77E18DEFED2B8
:0105CD00B776
:0105CE00220A
:10059000C2B77F02DFFED2B77F02DFFEA2B7E4332D
:0705A000FE7F18DFFEAF062D
:0105A7002231
:02057700AD07CE
:10057900E4FC7401A804088002C333D8FC5DFF12AF
:0605890005BD0CBC08ECEE
:01058F002249
:10052500E4FDFC120590EF600D7401A8040880023B
:0C053500C333D8FC42050CBC08E9AF053C
:010541002297
:1000260002017AEC5D046005E85904700302017070
:1000360012013B580460F6EC4860F2EC7004FDFED9
:10004600FF22C860DB2481C85009C39860025006AD
:100056000201779850CAF582E9294B4A7005AB82AE
:1000660002016675F0007C1A7880C3EF9BEE9AED6C
:1000760099400DC3EF9BFFEE9AFEED99FDE842F025
:10008600DC23ACF0D0E0FFD0E0FED0E0FDAB822078
:10009600E7101BEB60BAEC2CFCEF33FFEE33FEED02
:1000A60033FD020152E803F830E705C0F075F000B1
:1000B600EF2FFFEE33FEED33FD40B830E7C280AAE6
:1000C60075F020800E75F010800575F0087D007EB5
:1000D600007F003392D530D5031201CBEC334010AC
:1000E600EF33FFEE33FEED33FDEC33FCD5F0ED22BE
:0E00F600E5F0247EA2D513CC92E7CDCEFF22FA
:10010400EDD2E7CD33EC3392D524814006E4FFFEF3
:10011400FDFC22FCE4CFCECDCC24E0501174FF8052
:10012400EDC3CC13CCCD13CDCE13CECF13CF0470EF
:07013400F030D5DE0201CB23
:10013B00E9D2E7C933E833F892D5EDD2E7CD33EC0A
:07014B0033FC5002B2D52283
:10015200EC30E7100FBF000C0EBE00080DBD00040E
:100162000BEB6014A2D5EB13FCED92E7FD2274FFBA
:10017200FCFDFEFF22E480F8A2D574FF13FC7D8013
:03018200E480EF27
:0300000002030EEA
:0C030E00787FE4F6D8FD75817E0203556F
:10018500BB010689828A83E0225002E722BBFE0278
:09019500E32289828A83E49322AB
:10019E00BB010CE58229F582E5833AF583E0225016
:1001AE0006E92582F8E622BBFE06E92582F8E22260
:0D01BE00E58229F582E5833AF583E493227A
:0E01CB00C3E49FFFE49EFEE49DFDE49CFC2245
:10031A000201D9E493A3F8E493A34003F68001F21F
:10032A0008DFF48029E493A3F85407240CC8C333E4
:10033A00C4540F4420C8834004F456800146F6DFB3
:10034A00E4800B0102040810204080900003E47E40
:10035A00019360BCA3FF543F30E509541FFEE493A8
:10036A00A360010ECF54C025E060A840B8E493A36F
:10037A00FAE493A3F8E493A3C8C582C8CAC583CA9A
:10038A00F0A3C8C582C8CAC583CADFE9DEE780BE52
:01001F0000E0
:00000001FF
