:1000030008660103000000010000026100000163B3
:0C0013000002700000017C010278000077
:1001D9001205E27FE87E031205BB1205557B00126A
:1001E90004208E768F7785776CE576F56D7B007ABE
:1001F9000079667D087C001204CAC2901205E212D9
:10020900050C8F758E748D738C721201048F6FE5D6
:1002190063B401E8E4F561F562F563FB1204208E2D
:10022900768F77EFB56CD5E576B56DD0E568757ED7
:1002390000F57DE569427EE56A757B00F57AE56B37
:10024900427BE56724FD601A24FE70B0E56A7C00F4
:10025900B4FF047D0080027D01AF7EAE7D12039C58
:0F026900809AAD7BAC7AAF7EAE7D120278808D2D
:0A04CA008B5A8A5B895C8C5D8D5EA5
:1004D400E4F55FF560F55FF560C3E560955EE55DA5
:1004E4006480F8E55F648098501DAB5AAA5BA95CF0
:1004F400856082855F8312019EFF1205EF0560E52A
:070504006070D6055F80D294
:01050B0022CD
:030023000204854F
:10048500C0E0C0D075D000C000309832C3E562949A
:1004950008E56164809480502574662562F8A69904
:1004A5000562E56270020561C39408E561648094A4
:1004B500804009756301756100756200C298D000BE
:0504C500D0D0D0E032B0
:060420007A0079667D06FA
:080426008B5A8A5B895C8D5D35
:10042E0074FFFFFEAD5D155DED604BAB5A055CE5EF
:10043E005CAA5B7002055B14F91201856207E4F594
:10044E005EF55FC3E55F9408E55E6480948050D4EA
:10045E00EF30E011EEC313FEEF13FFEE64A0FEEFDC
:10046E006401FF8007EEC313FEEF13FF055FE55F28
:06047E0070D1055E80CD87
:010484002255
:10039C00EE7074EFB40900506E9003ACF82828731B
:1003AC000203C70203CF0203D70203DF0203E702F3
:1003BC0003EF0203F70203FF020407EC4D24FF9244
:1003CC00A08044EC4D24FF92A1803CEC4D24FF9284
:1003DC00A28034EC4D24FF92A3802CEC4D24FF9290
:1003EC00A48024EC4D24FF92A5801CEC4D24FF929C
:1003FC00A68014EC4D24FF92A7800CED64014C7088
:10040C0003C38001D392907B007A0079667D087CCF
:04041C00000204CA0C
:10027800755800755903857C08750903ED25E0F567
:100288000AE4F578F5798E788F79ED25E0FFEC337F
:10029800FEC3E5799FEE6480F8E578648098502D78
:1002A800C3E5799402E578648094805020AF79742E
:1002B8006E2FF8E6FE740B2FF8A6060559E559705F
:1002C8000205580579E57970C1057880BD7B007A0B
:1002D800007908AD591204268E648F650559E559D1
:1002E80070020558142408F8A607E564FF0559E5C7
:1002F8005970020558142408F8A6077B007A00797B
:0803080008AD59AC580204CA0B
:1005BB00EF1FAC0670011E4C600A7D027CEFDCFE67
:0405CB00DDFC80ECE7
:0105CF002209
:1005550075985043878053890F438920758BF475AF
:0B0565008DF4C2ABD28ED2AFD2AC221C
:0805EF008F993099FDC2992299
:0D05E2001205707FCC12058A7F4402058A45
:10050C001205707FCC12058A7FBE12058A1205383F
:10051C008F08120538EFFEE508FFFDAC06EC120063
:0B052C00CBE4FBFA7980784112002933
:0105370022A1
:10057000D2B7C2B77FF7DFFED2B77F20DFFEA2B7C8
:09058000E433FE7FF7DFFEAF0655
:01058900224F
:1005D000C2B77E04DEFEEF24FF92B77E18DEFED2A5
:0105E000B763
:0105E10022F7
:1005A300C2B77F02DFFED2B77F02DFFEA2B7E4331A
:0705B300FE7F18DFFEAF061A
:0105BA00221E
:02058A00AD07BB
:10058C00E4FC7401A804088002C333D8FC5DFF129C
:06059C0005D00CBC08ECC8
:0105A2002236
:10053800E4FDFC1205A3EF600D7401A80408800215
:0C054800C333D8FC42050CBC08E9AF0529
:010554002284
:1000260002017AEC5D046005E85904700302017070
:1000360012013B580460F6EC4860F2EC7004FDFED9
:10004600FF22C860DB2481C85009C39860025006AD
:100056000201779850CAF582E9294B4A7005AB82AE
:1000660002016675F0007C1A7880C3EF9BEE9AED6C
:1000760099400DC3EF9BFFEE9AFEED99FDE842F025
:10008600DC23ACF0D0E0FFD0E0FED0E0FDAB822078
:10009600E7101BEB60BAEC2CFCEF33FFEE33FEED02
:1000A60033FD020152E803F830E705C0F075F000B1
:1000B600EF2FFFEE33FEED33FD40B830E7C280AAE6
:1000C60075F020800E75F010800575F0087D007EB5
:1000D600007F003392D530D5031201CBEC334010AC
:1000E600EF33FFEE33FEED33FDEC33FCD5F0ED22BE
:0E00F600E5F0247EA2D513CC92E7CDCEFF22FA
:10010400EDD2E7CD33EC3392D524814006E4FFFEF3
:10011400FDFC22FCE4CFCECDCC24E0501174FF8052
:10012400EDC3CC13CCCD13CDCE13CECF13CF0470EF
:07013400F030D5DE0201CB23
:10013B00E9D2E7C933E833F892D5EDD2E7CD33EC0A
:07014B0033FC5002B2D52283
:10015200EC30E7100FBF000C0EBE00080DBD00040E
:100162000BEB6014A2D5EB13FCED92E7FD2274FFBA
:10017200FCFDFEFF22E480F8A2D574FF13FC7D8013
:03018200E480EF27
:03000000020310E8
:0C031000787FE4F6D8FD75817E0203576B
:10018500BB010689828A83E0225002E722BBFE0278
:09019500E32289828A83E49322AB
:10019E00BB010CE58229F582E5833AF583E0225016
:1001AE0006E92582F8E622BBFE06E92582F8E22260
:0D01BE00E58229F582E5833AF583E493227A
:0E01CB00C3E49FFFE49EFEE49DFDE49CFC2245
:10031C000201D9E493A3F8E493A34003F68001F21D
:10032C0008DFF48029E493A3F85407240CC8C333E2
:10033C00C4540F4420C8834004F456800146F6DFB1
:10034C00E4800B0102040810204080900003E47E3E
:10035C00019360BCA3FF543F30E509541FFEE493A6
:10036C00A360010ECF54C025E060A840B8E493A36D
:10037C00FAE493A3F8E493A3C8C582C8CAC583CA98
:10038C00F0A3C8C582C8CAC583CADFE9DEE780BE50
:01001F0000E0
:00000001FF
