:1000030008660103000000010000026100000163B3
:0C0013000002700000017C010278000077
:100264001207197FE87E031206F212068C7B001235
:1002740005578E768F7785776CE576F56D7B007AFA
:100284000079667D087C00120601C29012071912DB
:1002940006438F758E748D738C721201048F6FE513
:1002A40063B401E8E4F561F562F563FB1205578E6A
:1002B400768F77EFB56CD5E576B56DD0E568757E4C
:1002C40000F57DE569427EE56A757B00F57AE56BAC
:1002D400427BE56714602B24FE601A24FE70ADE5B2
:1002E4006A7C00B4FF047D0080027D01AF7EAE7D98
:1002F4001204D38097AD7BAC7AAF7EAE7D1203AF90
:10030400808AAD7BAC7AAF7EAE7D1203140202907C
:0A0601008B5A8A5B895C8C5D8D5E6C
:10060B00E4F55FF560F55FF560C3E560955EE55D6C
:10061B006480F8E55F648098501DAB5AAA5BA95CB7
:10062B00856082855F8312019EFF1207260560E5B8
:07063B006070D6055F80D25C
:010642002295
:030023000205BC17
:1005BC00C0E0C0D075D000C000309832C3E5629462
:1005CC0008E56164809480502574662562F8A699CC
:1005DC000562E56270020561C39408E5616480946C
:1005EC00804009756301756100756200C298D00086
:0505FC00D0D0D0E03278
:060557007A0079667D06C2
:08055D008B5A8A5B895C8D5DFD
:1005650074FFFFFEAD5D155DED604BAB5A055CE5B7
:100575005CAA5B7002055B14F91201856207E4F55C
:100585005EF55FC3E55F9408E55E6480948050D4B2
:10059500EF30E011EEC313FEEF13FFEE64A0FEEFA4
:1005A5006401FF8007EEC313FEEF13FF055FE55FF0
:0605B50070D1055E80CD4F
:0105BB00221D
:1004D300EE7074EFB40900506E9004E3F8282873AB
:1004E3000204FE02050602050E02051602051E029F
:1004F300052602052E02053602053EEC4D24FF9229
:10050300A08044EC4D24FF92A1803CEC4D24FF924B
:10051300A28034EC4D24FF92A3802CEC4D24FF9257
:10052300A48024EC4D24FF92A5801CEC4D24FF9263
:10053300A68014EC4D24FF92A7800CED64014C704F
:1005430003C38001D392907B007A0079667D087C97
:04055300000206019B
:080314008E088F09AB05AA0455
:10031C007C007D08AF03AE021201CBD3ED9400EC50
:10032C00648094807E0040047F0180027F008E8375
:10033C008F82AE02AF037C007D081201CBEF2582C9
:10034C00FF750A00750B04857C0C750D018F0EE58D
:10035C0009701CE5087018E5A0F4F50FA290E433C1
:10036C00FF050BE50B7002050A14240CF8A6077B9D
:10037C00007A00790CAD0B12055D8E768F77050B2C
:10038C00E50B7002050A14240CF8A607E576FF7439
:10039C000C250BF8A6077B007A00790CAD0BAC0A88
:0303AC0002060145
:1003AF00755800755903857C08750903ED25E0F52F
:1003BF000AE4F578F5798E788F79ED25E0FFEC3347
:1003CF00FEC3E5799FEE6480F8E578648098502D40
:1003DF00C3E5799402E578648094805020AF7974F6
:1003EF006E2FF8E6FE740B2FF8A6060559E5597027
:1003FF000205580579E57970C1057880BD7B007AD3
:10040F00007908AD5912055D8E648F650559E55960
:10041F0070020558142408F8A607E564FF0559E58E
:10042F005970020558142408F8A6077B007A007942
:08043F0008AD59AC580206019A
:1006F200EF1FAC0670011E4C600A7D027CEFDCFE2F
:04070200DDFC80ECAE
:0107060022D0
:10068C0075985043878053890F438920758BF47577
:0B069C008DF4C2ABD28ED2AFD2AC22E4
:080726008F993099FDC2992260
:0D0719001206A77FCC1206C17F440206C164
:100643001206A77FCC1206C17FBE1206C112066F27
:100653008F0812066FEFFEE508FFFDAC06EC1200F3
:0B066300CBE4FBFA79807841120029FB
:01066E002269
:1006A700D2B7C2B77FF7DFFED2B77F20DFFEA2B790
:0906B700E433FE7FF7DFFEAF061D
:0106C0002217
:10070700C2B77E04DEFEEF24FF92B77E18DEFED26C
:01071700B72A
:0107180022BE
:1006DA00C2B77F02DFFED2B77F02DFFEA2B7E433E2
:0706EA00FE7F18DFFEAF06E2
:0106F10022E6
:0206C100AD0783
:1006C300E4FC7401A804088002C333D8FC5DFF1264
:0606D30007070CBC08EC57
:0106D90022FE
:10066F00E4FDFC1206DAEF600D7401A804088002A5
:0C067F00C333D8FC42050CBC08E9AF05F1
:01068B00224C
:1000260002017AEC5D046005E85904700302017070
:1000360012013B580460F6EC4860F2EC7004FDFED9
:10004600FF22C860DB2481C85009C39860025006AD
:100056000201779850CAF582E9294B4A7005AB82AE
:1000660002016675F0007C1A7880C3EF9BEE9AED6C
:1000760099400DC3EF9BFFEE9AFEED99FDE842F025
:10008600DC23ACF0D0E0FFD0E0FED0E0FDAB822078
:10009600E7101BEB60BAEC2CFCEF33FFEE33FEED02
:1000A60033FD020152E803F830E705C0F075F000B1
:1000B600EF2FFFEE33FEED33FD40B830E7C280AAE6
:1000C60075F020800E75F010800575F0087D007EB5
:1000D600007F003392D530D503120201EC33401075
:1000E600EF33FFEE33FEED33FDEC33FCD5F0ED22BE
:0E00F600E5F0247EA2D513CC92E7CDCEFF22FA
:10010400EDD2E7CD33EC3392D524814006E4FFFEF3
:10011400FDFC22FCE4CFCECDCC24E0501174FF8052
:10012400EDC3CC13CCCD13CDCE13CECF13CF0470EF
:07013400F030D5DE020201EC
:10013B00E9D2E7C933E833F892D5EDD2E7CD33EC0A
:07014B0033FC5002B2D52283
:10015200EC30E7100FBF000C0EBE00080DBD00040E
:100162000BEB6014A2D5EB13FCED92E7FD2274FFBA
:10017200FCFDFEFF22E480F8A2D574FF13FC7D8013
:03018200E480EF27
:03000000020447B0
:0C044700787FE4F6D8FD75817E02048EFB
:10018500BB010689828A83E0225002E722BBFE0278
:09019500E32289828A83E49322AB
:10019E00BB010CE58229F582E5833AF583E0225016
:1001AE0006E92582F8E622BBFE06E92582F8E22260
:0D01BE00E58229F582E5833AF583E493227A
:1001CB00C2D5EC30E709B2D5E4C39DFDE49CFCEE4F
:1001DB0030E715B2D5E4C39FFFE49EFE12020FC3B6
:1001EB00E49DFDE49CFC800312020F30D507C3E4B1
:0601FB009FFFE49EFE22BE
:0E020100C3E49FFFE49EFEE49DFDE49CFC220E
:10045300020264E493A3F8E493A34003F68001F259
:1004630008DFF48029E493A3F85407240CC8C333AA
:10047300C4540F4420C8834004F456800146F6DF79
:10048300E4800B0102040810204080900003E47E06
:10049300019360BCA3FF543F30E509541FFEE4936E
:1004A300A360010ECF54C025E060A840B8E493A335
:1004B300FAE493A3F8E493A3C8C582C8CAC583CA60
:1004C300F0A3C8C582C8CAC583CADFE9DEE780BE18
:01001F0000E0
:10020F00BC000BBE0029EF8DF084FFADF022E4CCD3
:10021F00F875F008EF2FFFEE33FEEC33FCEE9DEC9C
:10022F00984005FCEE9DFE0FD5F0E9E4CEFD22EDE2
:10023F00F8F5F0EE8420D21CFEADF075F008EF2F2C
:10024F00FFED33FD4007985006D5F0F222C398FD1D
:05025F000FD5F0EA22BA
:00000001FF
